{
  "address": "0x9fE46736679d2D9a65F0992F2272dE9f3c7fa6e0",
  "abi": [
    {
      "inputs": [],
      "stateMutability": "nonpayable",
      "type": "constructor"
    },
    {
      "anonymous": false,
      "inputs": [
        {
          "indexed": true,
          "internalType": "address",
          "name": "owner",
          "type": "address"
        },
        {
          "indexed": true,
          "internalType": "address",
          "name": "spender",
          "type": "address"
        },
        {
          "indexed": false,
          "internalType": "uint256",
          "name": "value",
          "type": "uint256"
        }
      ],
      "name": "Approval",
      "type": "event"
    },
    {
      "anonymous": false,
      "inputs": [
        {
          "indexed": true,
          "internalType": "address",
          "name": "previousOwner",
          "type": "address"
        },
        {
          "indexed": true,
          "internalType": "address",
          "name": "newOwner",
          "type": "address"
        }
      ],
      "name": "OwnershipTransferred",
      "type": "event"
    },
    {
      "anonymous": false,
      "inputs": [
        {
          "indexed": true,
          "internalType": "address",
          "name": "from",
          "type": "address"
        },
        {
          "indexed": true,
          "internalType": "address",
          "name": "to",
          "type": "address"
        },
        {
          "indexed": false,
          "internalType": "uint256",
          "name": "value",
          "type": "uint256"
        }
      ],
      "name": "Transfer",
      "type": "event"
    },
    {
      "inputs": [
        {
          "internalType": "address",
          "name": "_owner",
          "type": "address"
        },
        {
          "internalType": "address",
          "name": "_spender",
          "type": "address"
        }
      ],
      "name": "allowance",
      "outputs": [
        {
          "internalType": "uint256",
          "name": "",
          "type": "uint256"
        }
      ],
      "stateMutability": "view",
      "type": "function"
    },
    {
      "inputs": [
        {
          "internalType": "address",
          "name": "",
          "type": "address"
        },
        {
          "internalType": "address",
          "name": "",
          "type": "address"
        }
      ],
      "name": "allowances",
      "outputs": [
        {
          "internalType": "uint256",
          "name": "",
          "type": "uint256"
        }
      ],
      "stateMutability": "view",
      "type": "function"
    },
    {
      "inputs": [
        {
          "internalType": "address",
          "name": "_spender",
          "type": "address"
        },
        {
          "internalType": "uint256",
          "name": "_amount",
          "type": "uint256"
        }
      ],
      "name": "approve",
      "outputs": [
        {
          "internalType": "bool",
          "name": "",
          "type": "bool"
        }
      ],
      "stateMutability": "nonpayable",
      "type": "function"
    },
    {
      "inputs": [
        {
          "internalType": "address",
          "name": "_account",
          "type": "address"
        }
      ],
      "name": "balanceOf",
      "outputs": [
        {
          "internalType": "uint256",
          "name": "",
          "type": "uint256"
        }
      ],
      "stateMutability": "view",
      "type": "function"
    },
    {
      "inputs": [
        {
          "internalType": "address",
          "name": "",
          "type": "address"
        }
      ],
      "name": "balances",
      "outputs": [
        {
          "internalType": "uint256",
          "name": "",
          "type": "uint256"
        }
      ],
      "stateMutability": "view",
      "type": "function"
    },
    {
      "inputs": [
        {
          "internalType": "address",
          "name": "_account",
          "type": "address"
        },
        {
          "internalType": "uint256",
          "name": "_amount",
          "type": "uint256"
        }
      ],
      "name": "burn",
      "outputs": [],
      "stateMutability": "nonpayable",
      "type": "function"
    },
    {
      "inputs": [],
      "name": "decimals",
      "outputs": [
        {
          "internalType": "uint8",
          "name": "",
          "type": "uint8"
        }
      ],
      "stateMutability": "view",
      "type": "function"
    },
    {
      "inputs": [],
      "name": "id",
      "outputs": [
        {
          "internalType": "string",
          "name": "_name",
          "type": "string"
        }
      ],
      "stateMutability": "pure",
      "type": "function"
    },
    {
      "inputs": [
        {
          "internalType": "address",
          "name": "_account",
          "type": "address"
        },
        {
          "internalType": "uint256",
          "name": "_amount",
          "type": "uint256"
        }
      ],
      "name": "mint",
      "outputs": [],
      "stateMutability": "nonpayable",
      "type": "function"
    },
    {
      "inputs": [],
      "name": "name",
      "outputs": [
        {
          "internalType": "string",
          "name": "",
          "type": "string"
        }
      ],
      "stateMutability": "view",
      "type": "function"
    },
    {
      "inputs": [],
      "name": "owner",
      "outputs": [
        {
          "internalType": "address",
          "name": "",
          "type": "address"
        }
      ],
      "stateMutability": "view",
      "type": "function"
    },
    {
      "inputs": [],
      "name": "renounceOwnership",
      "outputs": [],
      "stateMutability": "nonpayable",
      "type": "function"
    },
    {
      "inputs": [
        {
          "internalType": "string",
          "name": "_name",
          "type": "string"
        },
        {
          "internalType": "string",
          "name": "_symbol",
          "type": "string"
        }
      ],
      "name": "setInfo",
      "outputs": [],
      "stateMutability": "nonpayable",
      "type": "function"
    },
    {
      "inputs": [],
      "name": "symbol",
      "outputs": [
        {
          "internalType": "string",
          "name": "",
          "type": "string"
        }
      ],
      "stateMutability": "view",
      "type": "function"
    },
    {
      "inputs": [],
      "name": "totalSupply",
      "outputs": [
        {
          "internalType": "uint256",
          "name": "",
          "type": "uint256"
        }
      ],
      "stateMutability": "view",
      "type": "function"
    },
    {
      "inputs": [
        {
          "internalType": "address",
          "name": "_recipient",
          "type": "address"
        },
        {
          "internalType": "uint256",
          "name": "_amount",
          "type": "uint256"
        }
      ],
      "name": "transfer",
      "outputs": [
        {
          "internalType": "bool",
          "name": "",
          "type": "bool"
        }
      ],
      "stateMutability": "nonpayable",
      "type": "function"
    },
    {
      "inputs": [
        {
          "internalType": "address",
          "name": "_sender",
          "type": "address"
        },
        {
          "internalType": "address",
          "name": "_recipient",
          "type": "address"
        },
        {
          "internalType": "uint256",
          "name": "_amount",
          "type": "uint256"
        }
      ],
      "name": "transferFrom",
      "outputs": [
        {
          "internalType": "bool",
          "name": "",
          "type": "bool"
        }
      ],
      "stateMutability": "nonpayable",
      "type": "function"
    },
    {
      "inputs": [
        {
          "internalType": "address",
          "name": "newOwner",
          "type": "address"
        }
      ],
      "name": "transferOwnership",
      "outputs": [],
      "stateMutability": "nonpayable",
      "type": "function"
    }
  ],
  "transactionHash": "0x4b1b550e7c6f6188614b549894f99267a1e22907268e3a7d451bcbcfea3ee2a5",
  "args": [],
  "numDeployments": 1,
  "solcInputHash": "573dacd569188b5cf8be1c93d7b60f19",
  "bytecode": "0x60806040523480156200001157600080fd5b506040518060400160405280600d81526020016c457363726f7765642056454c4160981b81525060405180604001604052806006815260200165657356454c4160d01b81525060008282826200007662000070620000ba60201b60201c565b620000be565b82516200008b90600190602086019062000202565b508151620000a190600290602085019062000202565b50620000ae33826200010e565b5050505050506200030c565b3390565b600080546001600160a01b038381166001600160a01b0319831681178455604051919092169283917f8be0079c531659141344cd1fd0a4f28419497f9722a3daafe3b4186f6b6457e09190a35050565b6001600160a01b038216620001755760405162461bcd60e51b815260206004820152602360248201527f42617365546f6b656e3a206d696e7420746f20746865207a65726f206164647260448201526265737360e81b606482015260840160405180910390fd5b8060036000828254620001899190620002a8565b90915550506001600160a01b03821660009081526004602052604081208054839290620001b8908490620002a8565b90915550506040518181526001600160a01b038316906000907fddf252ad1be2c89b69c2b068fc378daa952ba7f163c4a11628f55a4df523b3ef9060200160405180910390a35050565b8280546200021090620002cf565b90600052602060002090601f0160209004810192826200023457600085556200027f565b82601f106200024f57805160ff19168380011785556200027f565b828001600101855582156200027f579182015b828111156200027f57825182559160200191906001019062000262565b506200028d92915062000291565b5090565b5b808211156200028d576000815560010162000292565b60008219821115620002ca57634e487b7160e01b600052601160045260246000fd5b500190565b600181811c90821680620002e457607f821691505b602082108114156200030657634e487b7160e01b600052602260045260246000fd5b50919050565b610e41806200031c6000396000f3fe608060405234801561001057600080fd5b50600436106101165760003560e01c8063715018a6116100a2578063a9059cbb11610071578063a9059cbb14610267578063a923fc401461027a578063af640d0f1461028d578063dd62ed3e146102af578063f2fde38b146102e857600080fd5b8063715018a6146102295780638da5cb5b1461023157806395d89b411461024c5780639dc29fac1461025457600080fd5b806327e235e3116100e957806327e235e314610186578063313ce567146101a657806340c10f19146101c057806355b6ed5c146101d557806370a082311461020057600080fd5b806306fdde031461011b578063095ea7b31461013957806318160ddd1461015c57806323b872dd14610173575b600080fd5b6101236102fb565b6040516101309190610b58565b60405180910390f35b61014c610147366004610bc9565b610389565b6040519015158152602001610130565b61016560035481565b604051908152602001610130565b61014c610181366004610bf3565b61039f565b610165610194366004610c2f565b60046020526000908152604090205481565b6101ae601281565b60405160ff9091168152602001610130565b6101d36101ce366004610bc9565b61047e565b005b6101656101e3366004610c51565b600560209081526000928352604080842090915290825290205481565b61016561020e366004610c2f565b6001600160a01b031660009081526004602052604090205490565b6101d3610494565b6000546040516001600160a01b039091168152602001610130565b6101236104a8565b6101d3610262366004610bc9565b6104b5565b61014c610275366004610bc9565b6104c7565b6101d3610288366004610d27565b6104d4565b604080518082019091526006815265657356454c4160d01b6020820152610123565b6101656102bd366004610c51565b6001600160a01b03918216600090815260056020908152604080832093909416825291909152205490565b6101d36102f6366004610c2f565b610508565b6001805461030890610d8b565b80601f016020809104026020016040519081016040528092919081815260200182805461033490610d8b565b80156103815780601f1061035657610100808354040283529160200191610381565b820191906000526020600020905b81548152906001019060200180831161036457829003601f168201915b505050505081565b6000610396338484610581565b50600192915050565b6001600160a01b038316600090815260056020908152604080832033845290915281205482111561042c5760405162461bcd60e51b815260206004820152602c60248201527f42617365546f6b656e3a207472616e7366657220616d6f756e7420657863656560448201526b647320616c6c6f77616e636560a01b60648201526084015b60405180910390fd5b6001600160a01b038416600090815260056020908152604080832033845290915281205461045b908490610ddc565b9050610468853383610581565b610473858585610648565b506001949350505050565b6104866107ca565b6104908282610824565b5050565b61049c6107ca565b6104a66000610910565b565b6002805461030890610d8b565b6104bd6107ca565b6104908282610960565b6000610396338484610648565b6104dc6107ca565b81516104ef906001906020850190610abf565b508051610503906002906020840190610abf565b505050565b6105106107ca565b6001600160a01b0381166105755760405162461bcd60e51b815260206004820152602660248201527f4f776e61626c653a206e6577206f776e657220697320746865207a65726f206160448201526564647265737360d01b6064820152608401610423565b61057e81610910565b50565b6001600160a01b0382166105e65760405162461bcd60e51b815260206004820152602660248201527f42617365546f6b656e3a20617070726f766520746f20746865207a65726f206160448201526564647265737360d01b6064820152608401610423565b6001600160a01b0383811660008181526005602090815260408083209487168084529482529182902085905590518481527f8c5be1e5ebec7d5bd14f71427d1e84f3dd0314c0f7b2291e5b200ac8c7c3b92591015b60405180910390a3505050565b6001600160a01b0382166106ae5760405162461bcd60e51b815260206004820152602760248201527f42617365546f6b656e3a207472616e7366657220746f20746865207a65726f206044820152666164647265737360c81b6064820152608401610423565b6001600160a01b0383166000908152600460205260409020548111156107295760405162461bcd60e51b815260206004820152602a60248201527f42617365546f6b656e3a207472616e7366657220616d6f756e7420657863656560448201526964732062616c616e636560b01b6064820152608401610423565b6001600160a01b03831660009081526004602052604081208054839290610751908490610ddc565b90915550506001600160a01b0382166000908152600460205260408120805483929061077e908490610df3565b92505081905550816001600160a01b0316836001600160a01b03167fddf252ad1be2c89b69c2b068fc378daa952ba7f163c4a11628f55a4df523b3ef8360405161063b91815260200190565b6000546001600160a01b031633146104a65760405162461bcd60e51b815260206004820181905260248201527f4f776e61626c653a2063616c6c6572206973206e6f7420746865206f776e65726044820152606401610423565b6001600160a01b0382166108865760405162461bcd60e51b815260206004820152602360248201527f42617365546f6b656e3a206d696e7420746f20746865207a65726f206164647260448201526265737360e81b6064820152608401610423565b80600360008282546108989190610df3565b90915550506001600160a01b038216600090815260046020526040812080548392906108c5908490610df3565b90915550506040518181526001600160a01b038316906000907fddf252ad1be2c89b69c2b068fc378daa952ba7f163c4a11628f55a4df523b3ef906020015b60405180910390a35050565b600080546001600160a01b038381166001600160a01b0319831681178455604051919092169283917f8be0079c531659141344cd1fd0a4f28419497f9722a3daafe3b4186f6b6457e09190a35050565b6001600160a01b0382166109c45760405162461bcd60e51b815260206004820152602560248201527f42617365546f6b656e3a206275726e2066726f6d20746865207a65726f206164604482015264647265737360d81b6064820152608401610423565b6001600160a01b038216600090815260046020526040902054811115610a3b5760405162461bcd60e51b815260206004820152602660248201527f42617365546f6b656e3a206275726e20616d6f756e7420657863656564732062604482015265616c616e636560d01b6064820152608401610423565b6001600160a01b03821660009081526004602052604081208054839290610a63908490610ddc565b925050819055508060036000828254610a7c9190610ddc565b90915550506040518181526000906001600160a01b038416907fddf252ad1be2c89b69c2b068fc378daa952ba7f163c4a11628f55a4df523b3ef90602001610904565b828054610acb90610d8b565b90600052602060002090601f016020900481019282610aed5760008555610b33565b82601f10610b0657805160ff1916838001178555610b33565b82800160010185558215610b33579182015b82811115610b33578251825591602001919060010190610b18565b50610b3f929150610b43565b5090565b5b80821115610b3f5760008155600101610b44565b600060208083528351808285015260005b81811015610b8557858101830151858201604001528201610b69565b81811115610b97576000604083870101525b50601f01601f1916929092016040019392505050565b80356001600160a01b0381168114610bc457600080fd5b919050565b60008060408385031215610bdc57600080fd5b610be583610bad565b946020939093013593505050565b600080600060608486031215610c0857600080fd5b610c1184610bad565b9250610c1f60208501610bad565b9150604084013590509250925092565b600060208284031215610c4157600080fd5b610c4a82610bad565b9392505050565b60008060408385031215610c6457600080fd5b610c6d83610bad565b9150610c7b60208401610bad565b90509250929050565b634e487b7160e01b600052604160045260246000fd5b600082601f830112610cab57600080fd5b813567ffffffffffffffff80821115610cc657610cc6610c84565b604051601f8301601f19908116603f01168101908282118183101715610cee57610cee610c84565b81604052838152866020858801011115610d0757600080fd5b836020870160208301376000602085830101528094505050505092915050565b60008060408385031215610d3a57600080fd5b823567ffffffffffffffff80821115610d5257600080fd5b610d5e86838701610c9a565b93506020850135915080821115610d7457600080fd5b50610d8185828601610c9a565b9150509250929050565b600181811c90821680610d9f57607f821691505b60208210811415610dc057634e487b7160e01b600052602260045260246000fd5b50919050565b634e487b7160e01b600052601160045260246000fd5b600082821015610dee57610dee610dc6565b500390565b60008219821115610e0657610e06610dc6565b50019056fea264697066735822122048abbd6d79b958e323cd49e41da730d7ed5485b5e82dc5ebe0ddb3cd6f1218e764736f6c63430008090033",
  "devdoc": {
    "kind": "dev",
    "methods": {
      "owner()": {
        "details": "Returns the address of the current owner."
      },
      "renounceOwnership()": {
        "details": "Leaves the contract without owner. It will not be possible to call `onlyOwner` functions. Can only be called by the current owner. NOTE: Renouncing ownership will leave the contract without an owner, thereby disabling any functionality that is only available to the owner."
      },
      "transferOwnership(address)": {
        "details": "Transfers ownership of the contract to a new account (`newOwner`). Can only be called by the current owner."
      }
    },
    "version": 1
  },
  "userdoc": {
    "kind": "user",
    "methods": {},
    "version": 1
  },
  "storageLayout": {
    "storage": [
      {
        "astId": 2083,
        "contract": "contracts/tokens/eVela.sol:eVELA",
        "label": "_owner",
        "offset": 0,
        "slot": "0",
        "type": "t_address"
      },
      {
        "astId": 27996,
        "contract": "contracts/tokens/eVela.sol:eVELA",
        "label": "name",
        "offset": 0,
        "slot": "1",
        "type": "t_string_storage"
      },
      {
        "astId": 27998,
        "contract": "contracts/tokens/eVela.sol:eVELA",
        "label": "symbol",
        "offset": 0,
        "slot": "2",
        "type": "t_string_storage"
      },
      {
        "astId": 28004,
        "contract": "contracts/tokens/eVela.sol:eVELA",
        "label": "totalSupply",
        "offset": 0,
        "slot": "3",
        "type": "t_uint256"
      },
      {
        "astId": 28008,
        "contract": "contracts/tokens/eVela.sol:eVELA",
        "label": "balances",
        "offset": 0,
        "slot": "4",
        "type": "t_mapping(t_address,t_uint256)"
      },
      {
        "astId": 28014,
        "contract": "contracts/tokens/eVela.sol:eVELA",
        "label": "allowances",
        "offset": 0,
        "slot": "5",
        "type": "t_mapping(t_address,t_mapping(t_address,t_uint256))"
      }
    ],
    "types": {
      "t_address": {
        "encoding": "inplace",
        "label": "address",
        "numberOfBytes": "20"
      },
      "t_mapping(t_address,t_mapping(t_address,t_uint256))": {
        "encoding": "mapping",
        "key": "t_address",
        "label": "mapping(address => mapping(address => uint256))",
        "numberOfBytes": "32",
        "value": "t_mapping(t_address,t_uint256)"
      },
      "t_mapping(t_address,t_uint256)": {
        "encoding": "mapping",
        "key": "t_address",
        "label": "mapping(address => uint256)",
        "numberOfBytes": "32",
        "value": "t_uint256"
      },
      "t_string_storage": {
        "encoding": "bytes",
        "label": "string",
        "numberOfBytes": "32"
      },
      "t_uint256": {
        "encoding": "inplace",
        "label": "uint256",
        "numberOfBytes": "32"
      }
    }
  }
}