{
  "address": "0x5FbDB2315678afecb367f032d93F642f64180aa3",
  "abi": [
    {
      "inputs": [],
      "stateMutability": "nonpayable",
      "type": "constructor"
    },
    {
      "inputs": [],
      "name": "acceptOwnership",
      "outputs": [],
      "stateMutability": "nonpayable",
      "type": "function"
    },
    {
      "inputs": [
        {
          "internalType": "address",
          "name": "op",
          "type": "address"
        }
      ],
      "name": "getOperatorLevel",
      "outputs": [
        {
          "internalType": "uint256",
          "name": "",
          "type": "uint256"
        }
      ],
      "stateMutability": "view",
      "type": "function"
    },
    {
      "inputs": [],
      "name": "oldOwner",
      "outputs": [
        {
          "internalType": "address",
          "name": "",
          "type": "address"
        }
      ],
      "stateMutability": "view",
      "type": "function"
    },
    {
      "inputs": [],
      "name": "pendingOwner",
      "outputs": [
        {
          "internalType": "address",
          "name": "",
          "type": "address"
        }
      ],
      "stateMutability": "view",
      "type": "function"
    },
    {
      "inputs": [
        {
          "internalType": "address",
          "name": "op",
          "type": "address"
        },
        {
          "internalType": "uint256",
          "name": "level",
          "type": "uint256"
        }
      ],
      "name": "setOperator",
      "outputs": [],
      "stateMutability": "nonpayable",
      "type": "function"
    },
    {
      "inputs": [
        {
          "internalType": "address",
          "name": "newOwner",
          "type": "address"
        }
      ],
      "name": "transferOwnership",
      "outputs": [],
      "stateMutability": "nonpayable",
      "type": "function"
    }
  ],
  "transactionHash": "0xfe894658011c94fa8cb919d1901353b43ba70536c375b09c909611bb0ef29c7d",
  "args": [],
  "numDeployments": 1,
  "solcInputHash": "573dacd569188b5cf8be1c93d7b60f19",
  "bytecode": "0x608060405234801561001057600080fd5b503360009081526020819052604081206004905561038b90819061003490396000f3fe608060405234801561001057600080fd5b50600436106100625760003560e01c8063777541361461006757806379ba50971461007c578063df07560514610084578063e30c3978146100c0578063f2fde38b146100eb578063f487404f146100fe575b600080fd5b61007a610075366004610309565b610111565b005b61007a610188565b6100ad610092366004610333565b6001600160a01b031660009081526020819052604090205490565b6040519081526020015b60405180910390f35b6002546100d3906001600160a01b031681565b6040516001600160a01b0390911681526020016100b7565b61007a6100f9366004610333565b610222565b6001546100d3906001600160a01b031681565b3360009081526020819052604090205460049081111561016b5760405162461bcd60e51b815260206004820152601060248201526f34b73b30b634b21037b832b930ba37b960811b60448201526064015b60405180910390fd5b506001600160a01b03909116600090815260208190526040902055565b6002546001600160a01b0316336001600160a01b0316146101de5760405162461bcd60e51b815260206004820152601060248201526f3737ba103832b73234b733a7bbb732b960811b6044820152606401610162565b3360009081526020819052604080822060049055600180546001600160a01b0316835290822091909155600280546001600160a01b03199081169091558154169055565b336000908152602081905260409020546004908111156102775760405162461bcd60e51b815260206004820152601060248201526f34b73b30b634b21037b832b930ba37b960811b6044820152606401610162565b6001600160a01b0382166102bc5760405162461bcd60e51b815260206004820152600c60248201526b7a65726f206164647265737360a01b6044820152606401610162565b50600180546001600160a01b03199081163317909155600280549091166001600160a01b0392909216919091179055565b80356001600160a01b038116811461030457600080fd5b919050565b6000806040838503121561031c57600080fd5b610325836102ed565b946020939093013593505050565b60006020828403121561034557600080fd5b61034e826102ed565b939250505056fea26469706673582212200f3df07722434b5e817c679563127122fe3643b264eb63fa1c45b4be45ae390064736f6c63430008090033",
  "devdoc": {
    "kind": "dev",
    "methods": {},
    "version": 1
  },
  "userdoc": {
    "kind": "user",
    "methods": {},
    "version": 1
  },
  "storageLayout": {
    "storage": [
      {
        "astId": 7339,
        "contract": "contracts/core/Operators.sol:Operators",
        "label": "operatorLevel",
        "offset": 0,
        "slot": "0",
        "type": "t_mapping(t_address,t_uint256)"
      },
      {
        "astId": 7341,
        "contract": "contracts/core/Operators.sol:Operators",
        "label": "oldOwner",
        "offset": 0,
        "slot": "1",
        "type": "t_address"
      },
      {
        "astId": 7343,
        "contract": "contracts/core/Operators.sol:Operators",
        "label": "pendingOwner",
        "offset": 0,
        "slot": "2",
        "type": "t_address"
      }
    ],
    "types": {
      "t_address": {
        "encoding": "inplace",
        "label": "address",
        "numberOfBytes": "20"
      },
      "t_mapping(t_address,t_uint256)": {
        "encoding": "mapping",
        "key": "t_address",
        "label": "mapping(address => uint256)",
        "numberOfBytes": "32",
        "value": "t_uint256"
      },
      "t_uint256": {
        "encoding": "inplace",
        "label": "uint256",
        "numberOfBytes": "32"
      }
    }
  }
}