{
  "address": "0xe7f1725E7734CE288F8367e1Bb143E90bb3F0512",
  "abi": [
    {
      "inputs": [
        {
          "internalType": "address",
          "name": "trustedForwarder",
          "type": "address"
        }
      ],
      "stateMutability": "nonpayable",
      "type": "constructor"
    },
    {
      "inputs": [],
      "name": "InvalidShortString",
      "type": "error"
    },
    {
      "inputs": [
        {
          "internalType": "string",
          "name": "str",
          "type": "string"
        }
      ],
      "name": "StringTooLong",
      "type": "error"
    },
    {
      "anonymous": false,
      "inputs": [
        {
          "indexed": true,
          "internalType": "address",
          "name": "owner",
          "type": "address"
        },
        {
          "indexed": true,
          "internalType": "address",
          "name": "spender",
          "type": "address"
        },
        {
          "indexed": false,
          "internalType": "uint256",
          "name": "value",
          "type": "uint256"
        }
      ],
      "name": "Approval",
      "type": "event"
    },
    {
      "anonymous": false,
      "inputs": [],
      "name": "EIP712DomainChanged",
      "type": "event"
    },
    {
      "anonymous": false,
      "inputs": [
        {
          "indexed": true,
          "internalType": "address",
          "name": "caller",
          "type": "address"
        }
      ],
      "name": "MetaTxnsDisabled",
      "type": "event"
    },
    {
      "anonymous": false,
      "inputs": [
        {
          "indexed": true,
          "internalType": "address",
          "name": "caller",
          "type": "address"
        }
      ],
      "name": "MetaTxnsEnabled",
      "type": "event"
    },
    {
      "anonymous": false,
      "inputs": [
        {
          "indexed": false,
          "internalType": "address",
          "name": "account",
          "type": "address"
        }
      ],
      "name": "Paused",
      "type": "event"
    },
    {
      "anonymous": false,
      "inputs": [
        {
          "indexed": true,
          "internalType": "bytes32",
          "name": "role",
          "type": "bytes32"
        },
        {
          "indexed": true,
          "internalType": "bytes32",
          "name": "previousAdminRole",
          "type": "bytes32"
        },
        {
          "indexed": true,
          "internalType": "bytes32",
          "name": "newAdminRole",
          "type": "bytes32"
        }
      ],
      "name": "RoleAdminChanged",
      "type": "event"
    },
    {
      "anonymous": false,
      "inputs": [
        {
          "indexed": true,
          "internalType": "bytes32",
          "name": "role",
          "type": "bytes32"
        },
        {
          "indexed": true,
          "internalType": "address",
          "name": "account",
          "type": "address"
        },
        {
          "indexed": true,
          "internalType": "address",
          "name": "sender",
          "type": "address"
        }
      ],
      "name": "RoleGranted",
      "type": "event"
    },
    {
      "anonymous": false,
      "inputs": [
        {
          "indexed": true,
          "internalType": "bytes32",
          "name": "role",
          "type": "bytes32"
        },
        {
          "indexed": true,
          "internalType": "address",
          "name": "account",
          "type": "address"
        },
        {
          "indexed": true,
          "internalType": "address",
          "name": "sender",
          "type": "address"
        }
      ],
      "name": "RoleRevoked",
      "type": "event"
    },
    {
      "anonymous": false,
      "inputs": [
        {
          "indexed": true,
          "internalType": "address",
          "name": "sender",
          "type": "address"
        },
        {
          "indexed": true,
          "internalType": "address",
          "name": "token",
          "type": "address"
        },
        {
          "indexed": false,
          "internalType": "uint256",
          "name": "value",
          "type": "uint256"
        }
      ],
      "name": "TokensRescued",
      "type": "event"
    },
    {
      "anonymous": false,
      "inputs": [
        {
          "indexed": true,
          "internalType": "address",
          "name": "from",
          "type": "address"
        },
        {
          "indexed": true,
          "internalType": "address",
          "name": "to",
          "type": "address"
        },
        {
          "indexed": false,
          "internalType": "uint256",
          "name": "value",
          "type": "uint256"
        }
      ],
      "name": "Transfer",
      "type": "event"
    },
    {
      "anonymous": false,
      "inputs": [
        {
          "indexed": false,
          "internalType": "address",
          "name": "account",
          "type": "address"
        }
      ],
      "name": "Unpaused",
      "type": "event"
    },
    {
      "inputs": [],
      "name": "DEFAULT_ADMIN_ROLE",
      "outputs": [
        {
          "internalType": "bytes32",
          "name": "",
          "type": "bytes32"
        }
      ],
      "stateMutability": "view",
      "type": "function"
    },
    {
      "inputs": [],
      "name": "DOMAIN_SEPARATOR",
      "outputs": [
        {
          "internalType": "bytes32",
          "name": "",
          "type": "bytes32"
        }
      ],
      "stateMutability": "view",
      "type": "function"
    },
    {
      "inputs": [],
      "name": "MINTER_ROLE",
      "outputs": [
        {
          "internalType": "bytes32",
          "name": "",
          "type": "bytes32"
        }
      ],
      "stateMutability": "view",
      "type": "function"
    },
    {
      "inputs": [],
      "name": "PAUSER_ROLE",
      "outputs": [
        {
          "internalType": "bytes32",
          "name": "",
          "type": "bytes32"
        }
      ],
      "stateMutability": "view",
      "type": "function"
    },
    {
      "inputs": [],
      "name": "RESCUER_ROLE",
      "outputs": [
        {
          "internalType": "bytes32",
          "name": "",
          "type": "bytes32"
        }
      ],
      "stateMutability": "view",
      "type": "function"
    },
    {
      "inputs": [
        {
          "internalType": "address",
          "name": "owner",
          "type": "address"
        },
        {
          "internalType": "address",
          "name": "spender",
          "type": "address"
        }
      ],
      "name": "allowance",
      "outputs": [
        {
          "internalType": "uint256",
          "name": "",
          "type": "uint256"
        }
      ],
      "stateMutability": "view",
      "type": "function"
    },
    {
      "inputs": [
        {
          "internalType": "address",
          "name": "spender",
          "type": "address"
        },
        {
          "internalType": "uint256",
          "name": "amount",
          "type": "uint256"
        }
      ],
      "name": "approve",
      "outputs": [
        {
          "internalType": "bool",
          "name": "",
          "type": "bool"
        }
      ],
      "stateMutability": "nonpayable",
      "type": "function"
    },
    {
      "inputs": [
        {
          "internalType": "address",
          "name": "account",
          "type": "address"
        }
      ],
      "name": "balanceOf",
      "outputs": [
        {
          "internalType": "uint256",
          "name": "",
          "type": "uint256"
        }
      ],
      "stateMutability": "view",
      "type": "function"
    },
    {
      "inputs": [],
      "name": "decimals",
      "outputs": [
        {
          "internalType": "uint8",
          "name": "",
          "type": "uint8"
        }
      ],
      "stateMutability": "view",
      "type": "function"
    },
    {
      "inputs": [
        {
          "internalType": "address",
          "name": "spender",
          "type": "address"
        },
        {
          "internalType": "uint256",
          "name": "subtractedValue",
          "type": "uint256"
        }
      ],
      "name": "decreaseAllowance",
      "outputs": [
        {
          "internalType": "bool",
          "name": "",
          "type": "bool"
        }
      ],
      "stateMutability": "nonpayable",
      "type": "function"
    },
    {
      "inputs": [],
      "name": "disableMetaTxns",
      "outputs": [],
      "stateMutability": "nonpayable",
      "type": "function"
    },
    {
      "inputs": [],
      "name": "eip712Domain",
      "outputs": [
        {
          "internalType": "bytes1",
          "name": "fields",
          "type": "bytes1"
        },
        {
          "internalType": "string",
          "name": "name",
          "type": "string"
        },
        {
          "internalType": "string",
          "name": "version",
          "type": "string"
        },
        {
          "internalType": "uint256",
          "name": "chainId",
          "type": "uint256"
        },
        {
          "internalType": "address",
          "name": "verifyingContract",
          "type": "address"
        },
        {
          "internalType": "bytes32",
          "name": "salt",
          "type": "bytes32"
        },
        {
          "internalType": "uint256[]",
          "name": "extensions",
          "type": "uint256[]"
        }
      ],
      "stateMutability": "view",
      "type": "function"
    },
    {
      "inputs": [],
      "name": "enableMetaTxns",
      "outputs": [],
      "stateMutability": "nonpayable",
      "type": "function"
    },
    {
      "inputs": [
        {
          "internalType": "bytes32",
          "name": "role",
          "type": "bytes32"
        }
      ],
      "name": "getRoleAdmin",
      "outputs": [
        {
          "internalType": "bytes32",
          "name": "",
          "type": "bytes32"
        }
      ],
      "stateMutability": "view",
      "type": "function"
    },
    {
      "inputs": [
        {
          "internalType": "bytes32",
          "name": "role",
          "type": "bytes32"
        },
        {
          "internalType": "address",
          "name": "account",
          "type": "address"
        }
      ],
      "name": "grantRole",
      "outputs": [],
      "stateMutability": "nonpayable",
      "type": "function"
    },
    {
      "inputs": [
        {
          "internalType": "bytes32",
          "name": "role",
          "type": "bytes32"
        },
        {
          "internalType": "address",
          "name": "account",
          "type": "address"
        }
      ],
      "name": "hasRole",
      "outputs": [
        {
          "internalType": "bool",
          "name": "",
          "type": "bool"
        }
      ],
      "stateMutability": "view",
      "type": "function"
    },
    {
      "inputs": [
        {
          "internalType": "address",
          "name": "spender",
          "type": "address"
        },
        {
          "internalType": "uint256",
          "name": "addedValue",
          "type": "uint256"
        }
      ],
      "name": "increaseAllowance",
      "outputs": [
        {
          "internalType": "bool",
          "name": "",
          "type": "bool"
        }
      ],
      "stateMutability": "nonpayable",
      "type": "function"
    },
    {
      "inputs": [
        {
          "internalType": "address",
          "name": "forwarder",
          "type": "address"
        }
      ],
      "name": "isTrustedForwarder",
      "outputs": [
        {
          "internalType": "bool",
          "name": "",
          "type": "bool"
        }
      ],
      "stateMutability": "view",
      "type": "function"
    },
    {
      "inputs": [],
      "name": "maxSupply",
      "outputs": [
        {
          "internalType": "uint256",
          "name": "",
          "type": "uint256"
        }
      ],
      "stateMutability": "view",
      "type": "function"
    },
    {
      "inputs": [],
      "name": "metaTxnsEnabled",
      "outputs": [
        {
          "internalType": "bool",
          "name": "",
          "type": "bool"
        }
      ],
      "stateMutability": "view",
      "type": "function"
    },
    {
      "inputs": [
        {
          "internalType": "address",
          "name": "to",
          "type": "address"
        },
        {
          "internalType": "uint256",
          "name": "amount",
          "type": "uint256"
        }
      ],
      "name": "mint",
      "outputs": [],
      "stateMutability": "nonpayable",
      "type": "function"
    },
    {
      "inputs": [],
      "name": "name",
      "outputs": [
        {
          "internalType": "string",
          "name": "",
          "type": "string"
        }
      ],
      "stateMutability": "view",
      "type": "function"
    },
    {
      "inputs": [
        {
          "internalType": "address",
          "name": "owner",
          "type": "address"
        }
      ],
      "name": "nonces",
      "outputs": [
        {
          "internalType": "uint256",
          "name": "",
          "type": "uint256"
        }
      ],
      "stateMutability": "view",
      "type": "function"
    },
    {
      "inputs": [],
      "name": "pause",
      "outputs": [],
      "stateMutability": "nonpayable",
      "type": "function"
    },
    {
      "inputs": [],
      "name": "paused",
      "outputs": [
        {
          "internalType": "bool",
          "name": "",
          "type": "bool"
        }
      ],
      "stateMutability": "view",
      "type": "function"
    },
    {
      "inputs": [
        {
          "internalType": "address",
          "name": "owner",
          "type": "address"
        },
        {
          "internalType": "address",
          "name": "spender",
          "type": "address"
        },
        {
          "internalType": "uint256",
          "name": "value",
          "type": "uint256"
        },
        {
          "internalType": "uint256",
          "name": "deadline",
          "type": "uint256"
        },
        {
          "internalType": "uint8",
          "name": "v",
          "type": "uint8"
        },
        {
          "internalType": "bytes32",
          "name": "r",
          "type": "bytes32"
        },
        {
          "internalType": "bytes32",
          "name": "s",
          "type": "bytes32"
        }
      ],
      "name": "permit",
      "outputs": [],
      "stateMutability": "nonpayable",
      "type": "function"
    },
    {
      "inputs": [
        {
          "internalType": "bytes32",
          "name": "role",
          "type": "bytes32"
        },
        {
          "internalType": "address",
          "name": "account",
          "type": "address"
        }
      ],
      "name": "renounceRole",
      "outputs": [],
      "stateMutability": "nonpayable",
      "type": "function"
    },
    {
      "inputs": [
        {
          "internalType": "contract IERC20",
          "name": "token",
          "type": "address"
        },
        {
          "internalType": "uint256",
          "name": "value",
          "type": "uint256"
        }
      ],
      "name": "rescueTokens",
      "outputs": [],
      "stateMutability": "nonpayable",
      "type": "function"
    },
    {
      "inputs": [
        {
          "internalType": "bytes32",
          "name": "role",
          "type": "bytes32"
        },
        {
          "internalType": "address",
          "name": "account",
          "type": "address"
        }
      ],
      "name": "revokeRole",
      "outputs": [],
      "stateMutability": "nonpayable",
      "type": "function"
    },
    {
      "inputs": [
        {
          "internalType": "bytes4",
          "name": "interfaceId",
          "type": "bytes4"
        }
      ],
      "name": "supportsInterface",
      "outputs": [
        {
          "internalType": "bool",
          "name": "",
          "type": "bool"
        }
      ],
      "stateMutability": "view",
      "type": "function"
    },
    {
      "inputs": [],
      "name": "symbol",
      "outputs": [
        {
          "internalType": "string",
          "name": "",
          "type": "string"
        }
      ],
      "stateMutability": "view",
      "type": "function"
    },
    {
      "inputs": [],
      "name": "totalSupply",
      "outputs": [
        {
          "internalType": "uint256",
          "name": "",
          "type": "uint256"
        }
      ],
      "stateMutability": "view",
      "type": "function"
    },
    {
      "inputs": [
        {
          "internalType": "address",
          "name": "to",
          "type": "address"
        },
        {
          "internalType": "uint256",
          "name": "amount",
          "type": "uint256"
        }
      ],
      "name": "transfer",
      "outputs": [
        {
          "internalType": "bool",
          "name": "",
          "type": "bool"
        }
      ],
      "stateMutability": "nonpayable",
      "type": "function"
    },
    {
      "inputs": [
        {
          "internalType": "address",
          "name": "from",
          "type": "address"
        },
        {
          "internalType": "address",
          "name": "to",
          "type": "address"
        },
        {
          "internalType": "uint256",
          "name": "amount",
          "type": "uint256"
        }
      ],
      "name": "transferFrom",
      "outputs": [
        {
          "internalType": "bool",
          "name": "",
          "type": "bool"
        }
      ],
      "stateMutability": "nonpayable",
      "type": "function"
    },
    {
      "inputs": [],
      "name": "unpause",
      "outputs": [],
      "stateMutability": "nonpayable",
      "type": "function"
    }
  ],
  "transactionHash": "0xa7f0d44076b138832e9ed8247641ee650d17390a349e692a2318a8105fe154d5",
  "args": [
    "0x15d34AAf54267DB7D7c367839AAf71A00a2C6A65"
  ],
  "numDeployments": 1,
  "solcInputHash": "573dacd569188b5cf8be1c93d7b60f19",
  "bytecode": "0x610160604052620000136012600a62000740565b62000023906305f5e10062000758565b600d553480156200003357600080fd5b50604051620029993803806200299983398101604081905262000056916200077a565b6040518060400160405280600481526020016356656c6160e01b81525080604051806040016040528060018152602001603160f81b8152506040518060400160405280600481526020016356656c6160e01b8152506040518060400160405280600481526020016356454c4160e01b8152508160039080519060200190620000e092919062000587565b508051620000f690600490602084019062000587565b50505062000114600583620002af60201b62000dd71790919060201c565b6101205262000131816006620002af602090811b62000dd717901c565b61014052815160208084019190912060e052815190820120610100524660a052620001bf60e05161010051604080517f8b73c3c69bb8fe3d512ecc4cf759cc79239f7b179b0ffacaa9a75d522b39400f60208201529081019290925260608201524660808201523060a082015260009060c00160405160208183030381529060405280519060200120905090565b60805250503060c052506009805460ff19169055620001e96000620001e362000303565b62000341565b620002187f65d7a28e3265b37a6474929f336521b332c1681b933f6cb9f3376673440d862a620001e362000303565b620002477f9f2df0fed2c77648de5860a4cc508cd0818c85b8b8a1ab4ceeef8d981c8956a6620001e362000303565b620002767fcf6f9f892731e14b8859835f2ff35575f447fb501f46243c4eb8bac19e31a050620001e362000303565b600b80546001600160a01b0319166001600160a01b038316179055620002a86200029f62000303565b600c5462000351565b5062000877565b6000602083511015620002cf57620002c78362000426565b9050620002fd565b82620002e6836200046960201b62000e0e1760201c565b8151620002f7926020019062000587565b5060ff90505b92915050565b600b546000906001600160a01b031633141562000327575060131936013560601c90565b6200033c6200046c60201b62000e111760201c565b905090565b6200034d828262000470565b5050565b6001600160a01b038216620003ad5760405162461bcd60e51b815260206004820152601f60248201527f45524332303a206d696e7420746f20746865207a65726f20616464726573730060448201526064015b60405180910390fd5b620003bb6000838362000516565b8060026000828254620003cf9190620007a5565b90915550506001600160a01b038216600081815260208181526040808320805486019055518481527fddf252ad1be2c89b69c2b068fc378daa952ba7f163c4a11628f55a4df523b3ef910160405180910390a35050565b600080829050601f8151111562000454578260405163305a27a960e01b8152600401620003a49190620007c0565b8051620004618262000818565b179392505050565b90565b3390565b6000828152600a602090815260408083206001600160a01b038516845290915290205460ff166200034d576000828152600a602090815260408083206001600160a01b03851684529091529020805460ff19166001179055620004d262000303565b6001600160a01b0316816001600160a01b0316837f2f8788117e7eff1d82e926ec794901d17c78024a50270940304540a733656f0d60405160405180910390a45050565b620005206200053d565b620005388383836200053860201b620006e01760201c565b505050565b60095460ff1615620005855760405162461bcd60e51b815260206004820152601060248201526f14185d5cd8589b194e881c185d5cd95960821b6044820152606401620003a4565b565b828054620005959062000840565b90600052602060002090601f016020900481019282620005b9576000855562000604565b82601f10620005d457805160ff191683800117855562000604565b8280016001018555821562000604579182015b8281111562000604578251825591602001919060010190620005e7565b506200061292915062000616565b5090565b5b8082111562000612576000815560010162000617565b634e487b7160e01b600052601160045260246000fd5b600181815b80851115620006845781600019048211156200066857620006686200062d565b808516156200067657918102915b93841c939080029062000648565b509250929050565b6000826200069d57506001620002fd565b81620006ac57506000620002fd565b8160018114620006c55760028114620006d057620006f0565b6001915050620002fd565b60ff841115620006e457620006e46200062d565b50506001821b620002fd565b5060208310610133831016604e8410600b841016171562000715575081810a620002fd565b62000721838362000643565b80600019048211156200073857620007386200062d565b029392505050565b60006200075160ff8416836200068c565b9392505050565b60008160001904831182151516156200077557620007756200062d565b500290565b6000602082840312156200078d57600080fd5b81516001600160a01b03811681146200075157600080fd5b60008219821115620007bb57620007bb6200062d565b500190565b600060208083528351808285015260005b81811015620007ef57858101830151858201604001528201620007d1565b8181111562000802576000604083870101525b50601f01601f1916929092016040019392505050565b805160208083015191908110156200083a576000198160200360031b1b821691505b50919050565b600181811c908216806200085557607f821691505b602082108114156200083a57634e487b7160e01b600052602260045260246000fd5b60805160a05160c05160e0516101005161012051610140516120c7620008d26000396000610afb01526000610ad0015260006112f4015260006112cc01526000611227015260006112510152600061127b01526120c76000f3fe608060405234801561001057600080fd5b50600436106102115760003560e01c80635c975abb11610125578063a457c2d7116100ad578063d53913931161007c578063d539139314610461578063d547741f14610488578063d5abeb011461049b578063dd62ed3e146104a3578063e63ab1e9146104b657600080fd5b8063a457c2d714610414578063a8c95dc014610427578063a9059cbb1461043b578063d505accf1461044e57600080fd5b80638456cb59116100f45780638456cb59146103ce57806384b0196e146103d657806391d14854146103f157806395d89b4114610404578063a217fddf1461040c57600080fd5b80635c975abb1461036057806370a082311461036b57806371372544146103945780637ecebe00146103bb57600080fd5b8063313ce567116101a85780633f4ba83a116101775780633f4ba83a1461030857806340c10f1914610310578063572b6c05146103235780635737619814610345578063578bb42d1461035857600080fd5b8063313ce567146102cb5780633644e515146102da57806336568abe146102e257806339509351146102f557600080fd5b806318160ddd116101e457806318160ddd1461027057806323b872dd14610282578063248a9ca3146102955780632f2ff15d146102b857600080fd5b806301ffc9a71461021657806306fdde031461023e5780630838364014610253578063095ea7b31461025d575b600080fd5b610229610224366004611c43565b6104dd565b60405190151581526020015b60405180910390f35b610246610514565b6040516102359190611cc5565b61025b6105a6565b005b61022961026b366004611ced565b61066b565b6002545b604051908152602001610235565b610229610290366004611d19565b61068d565b6102746102a3366004611d5a565b6000908152600a602052604090206001015490565b61025b6102c6366004611d73565b6106bb565b60405160128152602001610235565b6102746106e5565b61025b6102f0366004611d73565b6106f4565b610229610303366004611ced565b610782565b61025b6107ae565b61025b61031e366004611ced565b6107e3565b610229610331366004611da3565b600b546001600160a01b0391821691161490565b61025b610353366004611ced565b610891565b61025b6109ac565b60095460ff16610229565b610274610379366004611da3565b6001600160a01b031660009081526020819052604090205490565b6102747fcf6f9f892731e14b8859835f2ff35575f447fb501f46243c4eb8bac19e31a05081565b6102746103c9366004611da3565b610a72565b61025b610a90565b6103de610ac2565b6040516102359796959493929190611dc0565b6102296103ff366004611d73565b610b4b565b610246610b76565b610274600081565b610229610422366004611ced565b610b85565b600b5461022990600160a01b900460ff1681565b610229610449366004611ced565b610c0b565b61025b61045c366004611e56565b610c23565b6102747f9f2df0fed2c77648de5860a4cc508cd0818c85b8b8a1ab4ceeef8d981c8956a681565b61025b610496366004611d73565b610d87565b600d54610274565b6102746104b1366004611ecd565b610dac565b6102747f65d7a28e3265b37a6474929f336521b332c1681b933f6cb9f3376673440d862a81565b60006001600160e01b03198216637965db0b60e01b148061050e57506301ffc9a760e01b6001600160e01b03198316145b92915050565b60606003805461052390611efb565b80601f016020809104026020016040519081016040528092919081815260200182805461054f90611efb565b801561059c5780601f106105715761010080835404028352916020019161059c565b820191906000526020600020905b81548152906001019060200180831161057f57829003601f168201915b5050505050905090565b60006105b181610e15565b600b54600160a01b900460ff1661061e5760405162461bcd60e51b815260206004820152602660248201527f4d657461207472616e73616374696f6e732061726520616c72656164792064696044820152651cd8589b195960d21b60648201526084015b60405180910390fd5b600b805460ff60a01b19169055610633610e26565b6001600160a01b03167f096be170ccc67847e55535e7d8334b2afedd95805baedc160005addb9144745060405160405180910390a250565b600080610676610e26565b9050610683818585610e4e565b5060019392505050565b600080610698610e26565b90506106a5858285610f6a565b6106b0858585610fe4565b506001949350505050565b6000828152600a60205260409020600101546106d681610e15565b6106e08383611193565b505050565b60006106ef61121a565b905090565b6106fc610e26565b6001600160a01b0316816001600160a01b0316146107745760405162461bcd60e51b815260206004820152602f60248201527f416363657373436f6e74726f6c3a2063616e206f6e6c792072656e6f756e636560448201526e103937b632b9903337b91039b2b63360891b6064820152608401610615565b61077e8282611345565b5050565b60008061078d610e26565b905061068381858561079f8589610dac565b6107a99190611f46565b610e4e565b7f65d7a28e3265b37a6474929f336521b332c1681b933f6cb9f3376673440d862a6107d881610e15565b6107e06113ca565b50565b7f9f2df0fed2c77648de5860a4cc508cd0818c85b8b8a1ab4ceeef8d981c8956a661080d81610e15565b600d548261081a60025490565b6108249190611f46565b11156108875760405162461bcd60e51b815260206004820152602c60248201527f45524332303a2063616e6e6f74206d696e74206d6f726520746f6b656e732c2060448201526b18d85c08195e18d95959195960a21b6064820152608401610615565b6106e08383611422565b7fcf6f9f892731e14b8859835f2ff35575f447fb501f46243c4eb8bac19e31a0506108bb81610e15565b826001600160a01b031663a9059cbb6108d2610e26565b6040516001600160e01b031960e084901b1681526001600160a01b03909116600482015260248101859052604401602060405180830381600087803b15801561091a57600080fd5b505af115801561092e573d6000803e3d6000fd5b505050506040513d601f19601f820116820180604052508101906109529190611f5e565b50826001600160a01b0316610965610e26565b6001600160a01b03167f77023e19c7343ad491fd706c36335ca0e738340a91f29b1fd81e2673d44896c48460405161099f91815260200190565b60405180910390a3505050565b60006109b781610e15565b600b54600160a01b900460ff1615610a1f5760405162461bcd60e51b815260206004820152602560248201527f4d657461207472616e73616374696f6e732061726520616c726561647920656e60448201526418589b195960da1b6064820152608401610615565b600b805460ff60a01b1916600160a01b179055610a3a610e26565b6001600160a01b03167f92e4c08d47b71e8dc051232b8e475ec296489a67a4ba5cca88ff20fb6ac499e660405160405180910390a250565b6001600160a01b03811660009081526007602052604081205461050e565b7f65d7a28e3265b37a6474929f336521b332c1681b933f6cb9f3376673440d862a610aba81610e15565b6107e06114ed565b600060608082808083610af67f0000000000000000000000000000000000000000000000000000000000000000600561152b565b610b217f0000000000000000000000000000000000000000000000000000000000000000600661152b565b60408051600080825260208201909252600f60f81b9b939a50919850469750309650945092509050565b6000918252600a602090815260408084206001600160a01b0393909316845291905290205460ff1690565b60606004805461052390611efb565b600080610b90610e26565b90506000610b9e8286610dac565b905083811015610bfe5760405162461bcd60e51b815260206004820152602560248201527f45524332303a2064656372656173656420616c6c6f77616e63652062656c6f77604482015264207a65726f60d81b6064820152608401610615565b6106b08286868403610e4e565b600080610c16610e26565b9050610683818585610fe4565b83421115610c735760405162461bcd60e51b815260206004820152601d60248201527f45524332305065726d69743a206578706972656420646561646c696e650000006044820152606401610615565b60007f6e71edae12b1b97f4d1f60370fef10105fa2faae0126114a169c64845d6126c9888888610ca28c6115cf565b6040805160208101969096526001600160a01b0394851690860152929091166060840152608083015260a082015260c0810186905260e0016040516020818303038152906040528051906020012090506000610cfd826115f7565b90506000610d0d82878787611624565b9050896001600160a01b0316816001600160a01b031614610d705760405162461bcd60e51b815260206004820152601e60248201527f45524332305065726d69743a20696e76616c6964207369676e617475726500006044820152606401610615565b610d7b8a8a8a610e4e565b50505050505050505050565b6000828152600a6020526040902060010154610da281610e15565b6106e08383611345565b6001600160a01b03918216600090815260016020908152604080832093909416825291909152205490565b6000602083511015610df357610dec8361164c565b905061050e565b82828151610e049260200190611baa565b5060ff905061050e565b90565b3390565b6107e081610e21610e26565b61168a565b600b546000906001600160a01b0316331415610e49575060131936013560601c90565b503390565b6001600160a01b038316610eb05760405162461bcd60e51b8152602060048201526024808201527f45524332303a20617070726f76652066726f6d20746865207a65726f206164646044820152637265737360e01b6064820152608401610615565b6001600160a01b038216610f115760405162461bcd60e51b815260206004820152602260248201527f45524332303a20617070726f766520746f20746865207a65726f206164647265604482015261737360f01b6064820152608401610615565b6001600160a01b0383811660008181526001602090815260408083209487168084529482529182902085905590518481527f8c5be1e5ebec7d5bd14f71427d1e84f3dd0314c0f7b2291e5b200ac8c7c3b925910161099f565b6000610f768484610dac565b90506000198114610fde5781811015610fd15760405162461bcd60e51b815260206004820152601d60248201527f45524332303a20696e73756666696369656e7420616c6c6f77616e63650000006044820152606401610615565b610fde8484848403610e4e565b50505050565b6001600160a01b0383166110485760405162461bcd60e51b815260206004820152602560248201527f45524332303a207472616e736665722066726f6d20746865207a65726f206164604482015264647265737360d81b6064820152608401610615565b6001600160a01b0382166110aa5760405162461bcd60e51b815260206004820152602360248201527f45524332303a207472616e7366657220746f20746865207a65726f206164647260448201526265737360e81b6064820152608401610615565b6110b58383836116e3565b6001600160a01b0383166000908152602081905260409020548181101561112d5760405162461bcd60e51b815260206004820152602660248201527f45524332303a207472616e7366657220616d6f756e7420657863656564732062604482015265616c616e636560d01b6064820152608401610615565b6001600160a01b03848116600081815260208181526040808320878703905593871680835291849020805487019055925185815290927fddf252ad1be2c89b69c2b068fc378daa952ba7f163c4a11628f55a4df523b3ef910160405180910390a3610fde565b61119d8282610b4b565b61077e576000828152600a602090815260408083206001600160a01b03851684529091529020805460ff191660011790556111d6610e26565b6001600160a01b0316816001600160a01b0316837f2f8788117e7eff1d82e926ec794901d17c78024a50270940304540a733656f0d60405160405180910390a45050565b6000306001600160a01b037f00000000000000000000000000000000000000000000000000000000000000001614801561127357507f000000000000000000000000000000000000000000000000000000000000000046145b1561129d57507f000000000000000000000000000000000000000000000000000000000000000090565b6106ef604080517f8b73c3c69bb8fe3d512ecc4cf759cc79239f7b179b0ffacaa9a75d522b39400f60208201527f0000000000000000000000000000000000000000000000000000000000000000918101919091527f000000000000000000000000000000000000000000000000000000000000000060608201524660808201523060a082015260009060c00160405160208183030381529060405280519060200120905090565b61134f8282610b4b565b1561077e576000828152600a602090815260408083206001600160a01b03851684529091529020805460ff19169055611386610e26565b6001600160a01b0316816001600160a01b0316837ff6391f5c32d9c69d2a47ea670b442974b53935d1edc7fd64eb21e047a839171b60405160405180910390a45050565b6113d26116eb565b6009805460ff191690557f5db9ee0a495bf2e6ff9c91a7834c1ba4fdd244a5e8aa4e537bd38aeae4b073aa611405610e26565b6040516001600160a01b03909116815260200160405180910390a1565b6001600160a01b0382166114785760405162461bcd60e51b815260206004820152601f60248201527f45524332303a206d696e7420746f20746865207a65726f2061646472657373006044820152606401610615565b611484600083836116e3565b80600260008282546114969190611f46565b90915550506001600160a01b038216600081815260208181526040808320805486019055518481527fddf252ad1be2c89b69c2b068fc378daa952ba7f163c4a11628f55a4df523b3ef910160405180910390a35050565b6114f5611736565b6009805460ff191660011790557f62e78cea01bee320cd4e420270b5ea74000d11b0c9f74754ebdbfc544b05a258611405610e26565b606060ff831461153e57610dec8361177c565b81805461154a90611efb565b80601f016020809104026020016040519081016040528092919081815260200182805461157690611efb565b80156115c35780601f10611598576101008083540402835291602001916115c3565b820191906000526020600020905b8154815290600101906020018083116115a657829003601f168201915b5050505050905061050e565b6001600160a01b03811660009081526007602052604090208054600181018255905b50919050565b600061050e61160461121a565b8360405161190160f01b8152600281019290925260228201526042902090565b6000806000611635878787876117bb565b915091506116428161187f565b5095945050505050565b600080829050601f81511115611677578260405163305a27a960e01b81526004016106159190611cc5565b805161168282611f96565b179392505050565b6116948282610b4b565b61077e576116a1816119cd565b6116ac8360206119df565b6040516020016116bd929190611fba565b60408051601f198184030181529082905262461bcd60e51b825261061591600401611cc5565b6106e0611736565b60095460ff166117345760405162461bcd60e51b815260206004820152601460248201527314185d5cd8589b194e881b9bdd081c185d5cd95960621b6044820152606401610615565b565b60095460ff16156117345760405162461bcd60e51b815260206004820152601060248201526f14185d5cd8589b194e881c185d5cd95960821b6044820152606401610615565b6060600061178983611b82565b604080516020808252818301909252919250600091906020820181803683375050509182525060208101929092525090565b6000807f7fffffffffffffffffffffffffffffff5d576e7357a4501ddfe92f46681b20a08311156117f25750600090506003611876565b6040805160008082526020820180845289905260ff881692820192909252606081018690526080810185905260019060a0016020604051602081039080840390855afa158015611846573d6000803e3d6000fd5b5050604051601f1901519150506001600160a01b03811661186f57600060019250925050611876565b9150600090505b94509492505050565b60008160048111156118935761189361202f565b141561189c5750565b60018160048111156118b0576118b061202f565b14156118fe5760405162461bcd60e51b815260206004820152601860248201527f45434453413a20696e76616c6964207369676e617475726500000000000000006044820152606401610615565b60028160048111156119125761191261202f565b14156119605760405162461bcd60e51b815260206004820152601f60248201527f45434453413a20696e76616c6964207369676e6174757265206c656e677468006044820152606401610615565b60038160048111156119745761197461202f565b14156107e05760405162461bcd60e51b815260206004820152602260248201527f45434453413a20696e76616c6964207369676e6174757265202773272076616c604482015261756560f01b6064820152608401610615565b606061050e6001600160a01b03831660145b606060006119ee836002612045565b6119f9906002611f46565b67ffffffffffffffff811115611a1157611a11611f80565b6040519080825280601f01601f191660200182016040528015611a3b576020820181803683370190505b509050600360fc1b81600081518110611a5657611a56612064565b60200101906001600160f81b031916908160001a905350600f60fb1b81600181518110611a8557611a85612064565b60200101906001600160f81b031916908160001a9053506000611aa9846002612045565b611ab4906001611f46565b90505b6001811115611b2c576f181899199a1a9b1b9c1cb0b131b232b360811b85600f1660108110611ae857611ae8612064565b1a60f81b828281518110611afe57611afe612064565b60200101906001600160f81b031916908160001a90535060049490941c93611b258161207a565b9050611ab7565b508315611b7b5760405162461bcd60e51b815260206004820181905260248201527f537472696e67733a20686578206c656e67746820696e73756666696369656e746044820152606401610615565b9392505050565b600060ff8216601f81111561050e57604051632cd44ac360e21b815260040160405180910390fd5b828054611bb690611efb565b90600052602060002090601f016020900481019282611bd85760008555611c1e565b82601f10611bf157805160ff1916838001178555611c1e565b82800160010185558215611c1e579182015b82811115611c1e578251825591602001919060010190611c03565b50611c2a929150611c2e565b5090565b5b80821115611c2a5760008155600101611c2f565b600060208284031215611c5557600080fd5b81356001600160e01b031981168114611b7b57600080fd5b60005b83811015611c88578181015183820152602001611c70565b83811115610fde5750506000910152565b60008151808452611cb1816020860160208601611c6d565b601f01601f19169290920160200192915050565b602081526000611b7b6020830184611c99565b6001600160a01b03811681146107e057600080fd5b60008060408385031215611d0057600080fd5b8235611d0b81611cd8565b946020939093013593505050565b600080600060608486031215611d2e57600080fd5b8335611d3981611cd8565b92506020840135611d4981611cd8565b929592945050506040919091013590565b600060208284031215611d6c57600080fd5b5035919050565b60008060408385031215611d8657600080fd5b823591506020830135611d9881611cd8565b809150509250929050565b600060208284031215611db557600080fd5b8135611b7b81611cd8565b60ff60f81b881681526000602060e081840152611de060e084018a611c99565b8381036040850152611df2818a611c99565b606085018990526001600160a01b038816608086015260a0850187905284810360c0860152855180825283870192509083019060005b81811015611e4457835183529284019291840191600101611e28565b50909c9b505050505050505050505050565b600080600080600080600060e0888a031215611e7157600080fd5b8735611e7c81611cd8565b96506020880135611e8c81611cd8565b95506040880135945060608801359350608088013560ff81168114611eb057600080fd5b9699959850939692959460a0840135945060c09093013592915050565b60008060408385031215611ee057600080fd5b8235611eeb81611cd8565b91506020830135611d9881611cd8565b600181811c90821680611f0f57607f821691505b602082108114156115f157634e487b7160e01b600052602260045260246000fd5b634e487b7160e01b600052601160045260246000fd5b60008219821115611f5957611f59611f30565b500190565b600060208284031215611f7057600080fd5b81518015158114611b7b57600080fd5b634e487b7160e01b600052604160045260246000fd5b805160208083015191908110156115f15760001960209190910360031b1b16919050565b7f416363657373436f6e74726f6c3a206163636f756e7420000000000000000000815260008351611ff2816017850160208801611c6d565b7001034b99036b4b9b9b4b733903937b6329607d1b6017918401918201528351612023816028840160208801611c6d565b01602801949350505050565b634e487b7160e01b600052602160045260246000fd5b600081600019048311821515161561205f5761205f611f30565b500290565b634e487b7160e01b600052603260045260246000fd5b60008161208957612089611f30565b50600019019056fea2646970667358221220d1b57bad5879260943771fe0dee64155b5f60a108faf1edd63cd14d42887de5164736f6c63430008090033",
  "devdoc": {
    "kind": "dev",
    "methods": {
      "DOMAIN_SEPARATOR()": {
        "details": "Returns the domain separator used in the encoding of the signature for {permit}, as defined by {EIP712}."
      },
      "allowance(address,address)": {
        "details": "See {IERC20-allowance}."
      },
      "approve(address,uint256)": {
        "details": "See {IERC20-approve}. NOTE: If `amount` is the maximum `uint256`, the allowance is not updated on `transferFrom`. This is semantically equivalent to an infinite approval. Requirements: - `spender` cannot be the zero address."
      },
      "balanceOf(address)": {
        "details": "See {IERC20-balanceOf}."
      },
      "decimals()": {
        "details": "Returns the number of decimals used to get its user representation. For example, if `decimals` equals `2`, a balance of `505` tokens should be displayed to a user as `5.05` (`505 / 10 ** 2`). Tokens usually opt for a value of 18, imitating the relationship between Ether and Wei. This is the default value returned by this function, unless it's overridden. NOTE: This information is only used for _display_ purposes: it in no way affects any of the arithmetic of the contract, including {IERC20-balanceOf} and {IERC20-transfer}."
      },
      "decreaseAllowance(address,uint256)": {
        "details": "Atomically decreases the allowance granted to `spender` by the caller. This is an alternative to {approve} that can be used as a mitigation for problems described in {IERC20-approve}. Emits an {Approval} event indicating the updated allowance. Requirements: - `spender` cannot be the zero address. - `spender` must have allowance for the caller of at least `subtractedValue`."
      },
      "eip712Domain()": {
        "details": "See {EIP-5267}. _Available since v4.9._"
      },
      "getRoleAdmin(bytes32)": {
        "details": "Returns the admin role that controls `role`. See {grantRole} and {revokeRole}. To change a role's admin, use {_setRoleAdmin}."
      },
      "grantRole(bytes32,address)": {
        "details": "Grants `role` to `account`. If `account` had not been already granted `role`, emits a {RoleGranted} event. Requirements: - the caller must have ``role``'s admin role. May emit a {RoleGranted} event."
      },
      "hasRole(bytes32,address)": {
        "details": "Returns `true` if `account` has been granted `role`."
      },
      "increaseAllowance(address,uint256)": {
        "details": "Atomically increases the allowance granted to `spender` by the caller. This is an alternative to {approve} that can be used as a mitigation for problems described in {IERC20-approve}. Emits an {Approval} event indicating the updated allowance. Requirements: - `spender` cannot be the zero address."
      },
      "maxSupply()": {
        "details": "Returns the maximum amount of tokens that can be minted."
      },
      "name()": {
        "details": "Returns the name of the token."
      },
      "nonces(address)": {
        "details": "Returns the current nonce for `owner`. This value must be included whenever a signature is generated for {permit}. Every successful call to {permit} increases ``owner``'s nonce by one. This prevents a signature from being used multiple times."
      },
      "paused()": {
        "details": "Returns true if the contract is paused, and false otherwise."
      },
      "permit(address,address,uint256,uint256,uint8,bytes32,bytes32)": {
        "details": "Sets `value` as the allowance of `spender` over ``owner``'s tokens, given ``owner``'s signed approval. IMPORTANT: The same issues {IERC20-approve} has related to transaction ordering also apply here. Emits an {Approval} event. Requirements: - `spender` cannot be the zero address. - `deadline` must be a timestamp in the future. - `v`, `r` and `s` must be a valid `secp256k1` signature from `owner` over the EIP712-formatted function arguments. - the signature must use ``owner``'s current nonce (see {nonces}). For more information on the signature format, see the https://eips.ethereum.org/EIPS/eip-2612#specification[relevant EIP section]. CAUTION: See Security Considerations above."
      },
      "renounceRole(bytes32,address)": {
        "details": "Revokes `role` from the calling account. Roles are often managed via {grantRole} and {revokeRole}: this function's purpose is to provide a mechanism for accounts to lose their privileges if they are compromised (such as when a trusted device is misplaced). If the calling account had been revoked `role`, emits a {RoleRevoked} event. Requirements: - the caller must be `account`. May emit a {RoleRevoked} event."
      },
      "revokeRole(bytes32,address)": {
        "details": "Revokes `role` from `account`. If `account` had been granted `role`, emits a {RoleRevoked} event. Requirements: - the caller must have ``role``'s admin role. May emit a {RoleRevoked} event."
      },
      "supportsInterface(bytes4)": {
        "details": "See {IERC165-supportsInterface}."
      },
      "symbol()": {
        "details": "Returns the symbol of the token, usually a shorter version of the name."
      },
      "totalSupply()": {
        "details": "See {IERC20-totalSupply}."
      },
      "transfer(address,uint256)": {
        "details": "See {IERC20-transfer}. Requirements: - `to` cannot be the zero address. - the caller must have a balance of at least `amount`."
      },
      "transferFrom(address,address,uint256)": {
        "details": "See {IERC20-transferFrom}. Emits an {Approval} event indicating the updated allowance. This is not required by the EIP. See the note at the beginning of {ERC20}. NOTE: Does not update the allowance if the current allowance is the maximum `uint256`. Requirements: - `from` and `to` cannot be the zero address. - `from` must have a balance of at least `amount`. - the caller must have allowance for ``from``'s tokens of at least `amount`."
      }
    },
    "version": 1
  },
  "userdoc": {
    "kind": "user",
    "methods": {},
    "version": 1
  },
  "storageLayout": {
    "storage": [
      {
        "astId": 2337,
        "contract": "contracts/tokens/VELA.sol:Vela",
        "label": "_balances",
        "offset": 0,
        "slot": "0",
        "type": "t_mapping(t_address,t_uint256)"
      },
      {
        "astId": 2343,
        "contract": "contracts/tokens/VELA.sol:Vela",
        "label": "_allowances",
        "offset": 0,
        "slot": "1",
        "type": "t_mapping(t_address,t_mapping(t_address,t_uint256))"
      },
      {
        "astId": 2345,
        "contract": "contracts/tokens/VELA.sol:Vela",
        "label": "_totalSupply",
        "offset": 0,
        "slot": "2",
        "type": "t_uint256"
      },
      {
        "astId": 2347,
        "contract": "contracts/tokens/VELA.sol:Vela",
        "label": "_name",
        "offset": 0,
        "slot": "3",
        "type": "t_string_storage"
      },
      {
        "astId": 2349,
        "contract": "contracts/tokens/VELA.sol:Vela",
        "label": "_symbol",
        "offset": 0,
        "slot": "4",
        "type": "t_string_storage"
      },
      {
        "astId": 4986,
        "contract": "contracts/tokens/VELA.sol:Vela",
        "label": "_nameFallback",
        "offset": 0,
        "slot": "5",
        "type": "t_string_storage"
      },
      {
        "astId": 4988,
        "contract": "contracts/tokens/VELA.sol:Vela",
        "label": "_versionFallback",
        "offset": 0,
        "slot": "6",
        "type": "t_string_storage"
      },
      {
        "astId": 3009,
        "contract": "contracts/tokens/VELA.sol:Vela",
        "label": "_nonces",
        "offset": 0,
        "slot": "7",
        "type": "t_mapping(t_address,t_struct(Counter)3964_storage)"
      },
      {
        "astId": 3017,
        "contract": "contracts/tokens/VELA.sol:Vela",
        "label": "_PERMIT_TYPEHASH_DEPRECATED_SLOT",
        "offset": 0,
        "slot": "8",
        "type": "t_bytes32"
      },
      {
        "astId": 2231,
        "contract": "contracts/tokens/VELA.sol:Vela",
        "label": "_paused",
        "offset": 0,
        "slot": "9",
        "type": "t_bool"
      },
      {
        "astId": 1711,
        "contract": "contracts/tokens/VELA.sol:Vela",
        "label": "_roles",
        "offset": 0,
        "slot": "10",
        "type": "t_mapping(t_bytes32,t_struct(RoleData)1706_storage)"
      },
      {
        "astId": 28435,
        "contract": "contracts/tokens/VELA.sol:Vela",
        "label": "_trustedForwarder",
        "offset": 0,
        "slot": "11",
        "type": "t_address"
      },
      {
        "astId": 28437,
        "contract": "contracts/tokens/VELA.sol:Vela",
        "label": "metaTxnsEnabled",
        "offset": 20,
        "slot": "11",
        "type": "t_bool"
      },
      {
        "astId": 28439,
        "contract": "contracts/tokens/VELA.sol:Vela",
        "label": "_initialSupply",
        "offset": 0,
        "slot": "12",
        "type": "t_uint256"
      },
      {
        "astId": 28447,
        "contract": "contracts/tokens/VELA.sol:Vela",
        "label": "_maxSupply",
        "offset": 0,
        "slot": "13",
        "type": "t_uint256"
      }
    ],
    "types": {
      "t_address": {
        "encoding": "inplace",
        "label": "address",
        "numberOfBytes": "20"
      },
      "t_bool": {
        "encoding": "inplace",
        "label": "bool",
        "numberOfBytes": "1"
      },
      "t_bytes32": {
        "encoding": "inplace",
        "label": "bytes32",
        "numberOfBytes": "32"
      },
      "t_mapping(t_address,t_bool)": {
        "encoding": "mapping",
        "key": "t_address",
        "label": "mapping(address => bool)",
        "numberOfBytes": "32",
        "value": "t_bool"
      },
      "t_mapping(t_address,t_mapping(t_address,t_uint256))": {
        "encoding": "mapping",
        "key": "t_address",
        "label": "mapping(address => mapping(address => uint256))",
        "numberOfBytes": "32",
        "value": "t_mapping(t_address,t_uint256)"
      },
      "t_mapping(t_address,t_struct(Counter)3964_storage)": {
        "encoding": "mapping",
        "key": "t_address",
        "label": "mapping(address => struct Counters.Counter)",
        "numberOfBytes": "32",
        "value": "t_struct(Counter)3964_storage"
      },
      "t_mapping(t_address,t_uint256)": {
        "encoding": "mapping",
        "key": "t_address",
        "label": "mapping(address => uint256)",
        "numberOfBytes": "32",
        "value": "t_uint256"
      },
      "t_mapping(t_bytes32,t_struct(RoleData)1706_storage)": {
        "encoding": "mapping",
        "key": "t_bytes32",
        "label": "mapping(bytes32 => struct AccessControl.RoleData)",
        "numberOfBytes": "32",
        "value": "t_struct(RoleData)1706_storage"
      },
      "t_string_storage": {
        "encoding": "bytes",
        "label": "string",
        "numberOfBytes": "32"
      },
      "t_struct(Counter)3964_storage": {
        "encoding": "inplace",
        "label": "struct Counters.Counter",
        "members": [
          {
            "astId": 3963,
            "contract": "contracts/tokens/VELA.sol:Vela",
            "label": "_value",
            "offset": 0,
            "slot": "0",
            "type": "t_uint256"
          }
        ],
        "numberOfBytes": "32"
      },
      "t_struct(RoleData)1706_storage": {
        "encoding": "inplace",
        "label": "struct AccessControl.RoleData",
        "members": [
          {
            "astId": 1703,
            "contract": "contracts/tokens/VELA.sol:Vela",
            "label": "members",
            "offset": 0,
            "slot": "0",
            "type": "t_mapping(t_address,t_bool)"
          },
          {
            "astId": 1705,
            "contract": "contracts/tokens/VELA.sol:Vela",
            "label": "adminRole",
            "offset": 0,
            "slot": "1",
            "type": "t_bytes32"
          }
        ],
        "numberOfBytes": "64"
      },
      "t_uint256": {
        "encoding": "inplace",
        "label": "uint256",
        "numberOfBytes": "32"
      }
    }
  }
}