{
  "address": "0xCf7Ed3AccA5a467e9e704C703E8D87F634fB0Fc9",
  "abi": [
    {
      "inputs": [],
      "stateMutability": "nonpayable",
      "type": "constructor"
    },
    {
      "anonymous": false,
      "inputs": [
        {
          "indexed": true,
          "internalType": "address",
          "name": "owner",
          "type": "address"
        },
        {
          "indexed": true,
          "internalType": "address",
          "name": "spender",
          "type": "address"
        },
        {
          "indexed": false,
          "internalType": "uint256",
          "name": "value",
          "type": "uint256"
        }
      ],
      "name": "Approval",
      "type": "event"
    },
    {
      "anonymous": false,
      "inputs": [
        {
          "indexed": true,
          "internalType": "address",
          "name": "previousOwner",
          "type": "address"
        },
        {
          "indexed": true,
          "internalType": "address",
          "name": "newOwner",
          "type": "address"
        }
      ],
      "name": "OwnershipTransferred",
      "type": "event"
    },
    {
      "anonymous": false,
      "inputs": [
        {
          "indexed": true,
          "internalType": "address",
          "name": "from",
          "type": "address"
        },
        {
          "indexed": true,
          "internalType": "address",
          "name": "to",
          "type": "address"
        },
        {
          "indexed": false,
          "internalType": "uint256",
          "name": "value",
          "type": "uint256"
        }
      ],
      "name": "Transfer",
      "type": "event"
    },
    {
      "inputs": [
        {
          "internalType": "address",
          "name": "_owner",
          "type": "address"
        },
        {
          "internalType": "address",
          "name": "_spender",
          "type": "address"
        }
      ],
      "name": "allowance",
      "outputs": [
        {
          "internalType": "uint256",
          "name": "",
          "type": "uint256"
        }
      ],
      "stateMutability": "view",
      "type": "function"
    },
    {
      "inputs": [
        {
          "internalType": "address",
          "name": "",
          "type": "address"
        },
        {
          "internalType": "address",
          "name": "",
          "type": "address"
        }
      ],
      "name": "allowances",
      "outputs": [
        {
          "internalType": "uint256",
          "name": "",
          "type": "uint256"
        }
      ],
      "stateMutability": "view",
      "type": "function"
    },
    {
      "inputs": [
        {
          "internalType": "address",
          "name": "_spender",
          "type": "address"
        },
        {
          "internalType": "uint256",
          "name": "_amount",
          "type": "uint256"
        }
      ],
      "name": "approve",
      "outputs": [
        {
          "internalType": "bool",
          "name": "",
          "type": "bool"
        }
      ],
      "stateMutability": "nonpayable",
      "type": "function"
    },
    {
      "inputs": [
        {
          "internalType": "address",
          "name": "_account",
          "type": "address"
        }
      ],
      "name": "balanceOf",
      "outputs": [
        {
          "internalType": "uint256",
          "name": "",
          "type": "uint256"
        }
      ],
      "stateMutability": "view",
      "type": "function"
    },
    {
      "inputs": [
        {
          "internalType": "address",
          "name": "",
          "type": "address"
        }
      ],
      "name": "balances",
      "outputs": [
        {
          "internalType": "uint256",
          "name": "",
          "type": "uint256"
        }
      ],
      "stateMutability": "view",
      "type": "function"
    },
    {
      "inputs": [
        {
          "internalType": "address",
          "name": "_account",
          "type": "address"
        },
        {
          "internalType": "uint256",
          "name": "_amount",
          "type": "uint256"
        }
      ],
      "name": "burn",
      "outputs": [],
      "stateMutability": "nonpayable",
      "type": "function"
    },
    {
      "inputs": [],
      "name": "decimals",
      "outputs": [
        {
          "internalType": "uint8",
          "name": "",
          "type": "uint8"
        }
      ],
      "stateMutability": "view",
      "type": "function"
    },
    {
      "inputs": [],
      "name": "id",
      "outputs": [
        {
          "internalType": "string",
          "name": "_name",
          "type": "string"
        }
      ],
      "stateMutability": "pure",
      "type": "function"
    },
    {
      "inputs": [
        {
          "internalType": "address",
          "name": "_vault",
          "type": "address"
        },
        {
          "internalType": "address",
          "name": "_settingsManager",
          "type": "address"
        }
      ],
      "name": "initialize",
      "outputs": [],
      "stateMutability": "nonpayable",
      "type": "function"
    },
    {
      "inputs": [
        {
          "internalType": "address",
          "name": "_account",
          "type": "address"
        },
        {
          "internalType": "uint256",
          "name": "_amount",
          "type": "uint256"
        }
      ],
      "name": "mint",
      "outputs": [],
      "stateMutability": "nonpayable",
      "type": "function"
    },
    {
      "inputs": [],
      "name": "name",
      "outputs": [
        {
          "internalType": "string",
          "name": "",
          "type": "string"
        }
      ],
      "stateMutability": "view",
      "type": "function"
    },
    {
      "inputs": [],
      "name": "owner",
      "outputs": [
        {
          "internalType": "address",
          "name": "",
          "type": "address"
        }
      ],
      "stateMutability": "view",
      "type": "function"
    },
    {
      "inputs": [],
      "name": "renounceOwnership",
      "outputs": [],
      "stateMutability": "nonpayable",
      "type": "function"
    },
    {
      "inputs": [
        {
          "internalType": "string",
          "name": "_name",
          "type": "string"
        },
        {
          "internalType": "string",
          "name": "_symbol",
          "type": "string"
        }
      ],
      "name": "setInfo",
      "outputs": [],
      "stateMutability": "nonpayable",
      "type": "function"
    },
    {
      "inputs": [],
      "name": "settingsManager",
      "outputs": [
        {
          "internalType": "contract ISettingsManager",
          "name": "",
          "type": "address"
        }
      ],
      "stateMutability": "view",
      "type": "function"
    },
    {
      "inputs": [],
      "name": "symbol",
      "outputs": [
        {
          "internalType": "string",
          "name": "",
          "type": "string"
        }
      ],
      "stateMutability": "view",
      "type": "function"
    },
    {
      "inputs": [],
      "name": "totalSupply",
      "outputs": [
        {
          "internalType": "uint256",
          "name": "",
          "type": "uint256"
        }
      ],
      "stateMutability": "view",
      "type": "function"
    },
    {
      "inputs": [
        {
          "internalType": "address",
          "name": "_recipient",
          "type": "address"
        },
        {
          "internalType": "uint256",
          "name": "_amount",
          "type": "uint256"
        }
      ],
      "name": "transfer",
      "outputs": [
        {
          "internalType": "bool",
          "name": "",
          "type": "bool"
        }
      ],
      "stateMutability": "nonpayable",
      "type": "function"
    },
    {
      "inputs": [
        {
          "internalType": "address",
          "name": "_sender",
          "type": "address"
        },
        {
          "internalType": "address",
          "name": "_recipient",
          "type": "address"
        },
        {
          "internalType": "uint256",
          "name": "_amount",
          "type": "uint256"
        }
      ],
      "name": "transferFrom",
      "outputs": [
        {
          "internalType": "bool",
          "name": "",
          "type": "bool"
        }
      ],
      "stateMutability": "nonpayable",
      "type": "function"
    },
    {
      "inputs": [
        {
          "internalType": "address",
          "name": "newOwner",
          "type": "address"
        }
      ],
      "name": "transferOwnership",
      "outputs": [],
      "stateMutability": "nonpayable",
      "type": "function"
    },
    {
      "inputs": [],
      "name": "vault",
      "outputs": [
        {
          "internalType": "contract IVault",
          "name": "",
          "type": "address"
        }
      ],
      "stateMutability": "view",
      "type": "function"
    }
  ],
  "transactionHash": "0xa0d79f54d43ac52e9680b4f6d055bafe0728494a04cf30310fa242d35307f3cb",
  "args": [],
  "numDeployments": 1,
  "solcInputHash": "573dacd569188b5cf8be1c93d7b60f19",
  "bytecode": "0x60806040523480156200001157600080fd5b5060405180604001604052806007815260200166056656c61204c560cc1b815250604051806040016040528060038152602001620564c560ec1b81525060008282826200006d62000067620000b160201b60201c565b620000b5565b825162000082906001906020860190620001f9565b50815162000098906002906020850190620001f9565b50620000a5338262000105565b50505050505062000303565b3390565b600080546001600160a01b038381166001600160a01b0319831681178455604051919092169283917f8be0079c531659141344cd1fd0a4f28419497f9722a3daafe3b4186f6b6457e09190a35050565b6001600160a01b0382166200016c5760405162461bcd60e51b815260206004820152602360248201527f42617365546f6b656e3a206d696e7420746f20746865207a65726f206164647260448201526265737360e81b606482015260840160405180910390fd5b80600360008282546200018091906200029f565b90915550506001600160a01b03821660009081526004602052604081208054839290620001af9084906200029f565b90915550506040518181526001600160a01b038316906000907fddf252ad1be2c89b69c2b068fc378daa952ba7f163c4a11628f55a4df523b3ef9060200160405180910390a35050565b8280546200020790620002c6565b90600052602060002090601f0160209004810192826200022b576000855562000276565b82601f106200024657805160ff191683800117855562000276565b8280016001018555821562000276579182015b828111156200027657825182559160200191906001019062000259565b506200028492915062000288565b5090565b5b8082111562000284576000815560010162000289565b60008219821115620002c157634e487b7160e01b600052601160045260246000fd5b500190565b600181811c90821680620002db57607f821691505b60208210811415620002fd57634e487b7160e01b600052602260045260246000fd5b50919050565b61125b80620003136000396000f3fe608060405234801561001057600080fd5b50600436106101375760003560e01c8063715018a6116100b8578063a923fc401161007c578063a923fc40146102b8578063af640d0f146102cb578063bb7dd5e6146102ea578063dd62ed3e146102fd578063f2fde38b14610336578063fbfa77cf1461034957600080fd5b8063715018a61461025d5780638da5cb5b1461026557806395d89b411461028a5780639dc29fac14610292578063a9059cbb146102a557600080fd5b8063313ce567116100ff578063313ce567146101c757806340c10f19146101e1578063485cc955146101f657806355b6ed5c1461020957806370a082311461023457600080fd5b806306fdde031461013c578063095ea7b31461015a57806318160ddd1461017d57806323b872dd1461019457806327e235e3146101a7575b600080fd5b61014461035c565b6040516101519190610f3e565b60405180910390f35b61016d610168366004610faf565b6103ea565b6040519015158152602001610151565b61018660035481565b604051908152602001610151565b61016d6101a2366004610fd9565b610400565b6101866101b5366004611015565b60046020526000908152604090205481565b6101cf601281565b60405160ff9091168152602001610151565b6101f46101ef366004610faf565b6105eb565b005b6101f4610204366004611030565b610601565b610186610217366004611030565b600560209081526000928352604080842090915290825290205481565b610186610242366004611015565b6001600160a01b031660009081526004602052604090205490565b6101f4610637565b6000546001600160a01b03165b6040516001600160a01b039091168152602001610151565b61014461064b565b6101f46102a0366004610faf565b610658565b61016d6102b3366004610faf565b61066a565b6101f46102c6366004611106565b6107d7565b6040805180820190915260038152620564c560ec1b6020820152610144565b600754610272906001600160a01b031681565b61018661030b366004611030565b6001600160a01b03918216600090815260056020908152604080832093909416825291909152205490565b6101f4610344366004611015565b61080b565b600654610272906001600160a01b031681565b600180546103699061116a565b80601f01602080910402602001604051908101604052809291908181526020018280546103959061116a565b80156103e25780601f106103b7576101008083540402835291602001916103e2565b820191906000526020600020905b8154815290600101906020018083116103c557829003601f168201915b505050505081565b60006103f7338484610884565b50600192915050565b6007546040516372777ee160e11b81526001600160a01b038481166004830152600092169063e4eefdc29060240160206040518083038186803b15801561044657600080fd5b505afa15801561045a573d6000803e3d6000fd5b505050506040513d601f19601f8201168201806040525081019061047e91906111a5565b6105d85760075460408051633526931560e01b8152905142926001600160a01b0316916335269315916004808301926020929190829003018186803b1580156104c657600080fd5b505afa1580156104da573d6000803e3d6000fd5b505050506040513d601f19601f820116820180604052508101906104fe91906111c7565b6006546040516377a46edd60e01b81526001600160a01b038881166004830152909116906377a46edd9060240160206040518083038186803b15801561054357600080fd5b505afa158015610557573d6000803e3d6000fd5b505050506040513d601f19601f8201168201806040525081019061057b91906111c7565b61058591906111f6565b11156105d85760405162461bcd60e51b815260206004820181905260248201527f636f6f6c646f776e206475726174696f6e206e6f74207965742070617373656460448201526064015b60405180910390fd5b6105e384848461094b565b949350505050565b6105f3610a25565b6105fd8282610a7f565b5050565b610609610a25565b600680546001600160a01b039384166001600160a01b03199182161790915560078054929093169116179055565b61063f610a25565b6106496000610b6b565b565b600280546103699061116a565b610660610a25565b6105fd8282610bbb565b600042600760009054906101000a90046001600160a01b03166001600160a01b031663352693156040518163ffffffff1660e01b815260040160206040518083038186803b1580156106bb57600080fd5b505afa1580156106cf573d6000803e3d6000fd5b505050506040513d601f19601f820116820180604052508101906106f391906111c7565b6006546040516377a46edd60e01b81523360048201526001600160a01b03909116906377a46edd9060240160206040518083038186803b15801561073657600080fd5b505afa15801561074a573d6000803e3d6000fd5b505050506040513d601f19601f8201168201806040525081019061076e91906111c7565b61077891906111f6565b11156107c65760405162461bcd60e51b815260206004820181905260248201527f636f6f6c646f776e206475726174696f6e206e6f74207965742070617373656460448201526064016105cf565b6107d08383610d1a565b9392505050565b6107df610a25565b81516107f2906001906020850190610ea5565b508051610806906002906020840190610ea5565b505050565b610813610a25565b6001600160a01b0381166108785760405162461bcd60e51b815260206004820152602660248201527f4f776e61626c653a206e6577206f776e657220697320746865207a65726f206160448201526564647265737360d01b60648201526084016105cf565b61088181610b6b565b50565b6001600160a01b0382166108e95760405162461bcd60e51b815260206004820152602660248201527f42617365546f6b656e3a20617070726f766520746f20746865207a65726f206160448201526564647265737360d01b60648201526084016105cf565b6001600160a01b0383811660008181526005602090815260408083209487168084529482529182902085905590518481527f8c5be1e5ebec7d5bd14f71427d1e84f3dd0314c0f7b2291e5b200ac8c7c3b92591015b60405180910390a3505050565b6001600160a01b03831660009081526005602090815260408083203384529091528120548211156109d35760405162461bcd60e51b815260206004820152602c60248201527f42617365546f6b656e3a207472616e7366657220616d6f756e7420657863656560448201526b647320616c6c6f77616e636560a01b60648201526084016105cf565b6001600160a01b0384166000908152600560209081526040808320338452909152812054610a0290849061120e565b9050610a0f853383610884565b610a1a858585610d23565b506001949350505050565b6000546001600160a01b031633146106495760405162461bcd60e51b815260206004820181905260248201527f4f776e61626c653a2063616c6c6572206973206e6f7420746865206f776e657260448201526064016105cf565b6001600160a01b038216610ae15760405162461bcd60e51b815260206004820152602360248201527f42617365546f6b656e3a206d696e7420746f20746865207a65726f206164647260448201526265737360e81b60648201526084016105cf565b8060036000828254610af391906111f6565b90915550506001600160a01b03821660009081526004602052604081208054839290610b209084906111f6565b90915550506040518181526001600160a01b038316906000907fddf252ad1be2c89b69c2b068fc378daa952ba7f163c4a11628f55a4df523b3ef906020015b60405180910390a35050565b600080546001600160a01b038381166001600160a01b0319831681178455604051919092169283917f8be0079c531659141344cd1fd0a4f28419497f9722a3daafe3b4186f6b6457e09190a35050565b6001600160a01b038216610c1f5760405162461bcd60e51b815260206004820152602560248201527f42617365546f6b656e3a206275726e2066726f6d20746865207a65726f206164604482015264647265737360d81b60648201526084016105cf565b6001600160a01b038216600090815260046020526040902054811115610c965760405162461bcd60e51b815260206004820152602660248201527f42617365546f6b656e3a206275726e20616d6f756e7420657863656564732062604482015265616c616e636560d01b60648201526084016105cf565b6001600160a01b03821660009081526004602052604081208054839290610cbe90849061120e565b925050819055508060036000828254610cd7919061120e565b90915550506040518181526000906001600160a01b038416907fddf252ad1be2c89b69c2b068fc378daa952ba7f163c4a11628f55a4df523b3ef90602001610b5f565b60006103f73384845b6001600160a01b038216610d895760405162461bcd60e51b815260206004820152602760248201527f42617365546f6b656e3a207472616e7366657220746f20746865207a65726f206044820152666164647265737360c81b60648201526084016105cf565b6001600160a01b038316600090815260046020526040902054811115610e045760405162461bcd60e51b815260206004820152602a60248201527f42617365546f6b656e3a207472616e7366657220616d6f756e7420657863656560448201526964732062616c616e636560b01b60648201526084016105cf565b6001600160a01b03831660009081526004602052604081208054839290610e2c90849061120e565b90915550506001600160a01b03821660009081526004602052604081208054839290610e599084906111f6565b92505081905550816001600160a01b0316836001600160a01b03167fddf252ad1be2c89b69c2b068fc378daa952ba7f163c4a11628f55a4df523b3ef8360405161093e91815260200190565b828054610eb19061116a565b90600052602060002090601f016020900481019282610ed35760008555610f19565b82601f10610eec57805160ff1916838001178555610f19565b82800160010185558215610f19579182015b82811115610f19578251825591602001919060010190610efe565b50610f25929150610f29565b5090565b5b80821115610f255760008155600101610f2a565b600060208083528351808285015260005b81811015610f6b57858101830151858201604001528201610f4f565b81811115610f7d576000604083870101525b50601f01601f1916929092016040019392505050565b80356001600160a01b0381168114610faa57600080fd5b919050565b60008060408385031215610fc257600080fd5b610fcb83610f93565b946020939093013593505050565b600080600060608486031215610fee57600080fd5b610ff784610f93565b925061100560208501610f93565b9150604084013590509250925092565b60006020828403121561102757600080fd5b6107d082610f93565b6000806040838503121561104357600080fd5b61104c83610f93565b915061105a60208401610f93565b90509250929050565b634e487b7160e01b600052604160045260246000fd5b600082601f83011261108a57600080fd5b813567ffffffffffffffff808211156110a5576110a5611063565b604051601f8301601f19908116603f011681019082821181831017156110cd576110cd611063565b816040528381528660208588010111156110e657600080fd5b836020870160208301376000602085830101528094505050505092915050565b6000806040838503121561111957600080fd5b823567ffffffffffffffff8082111561113157600080fd5b61113d86838701611079565b9350602085013591508082111561115357600080fd5b5061116085828601611079565b9150509250929050565b600181811c9082168061117e57607f821691505b6020821081141561119f57634e487b7160e01b600052602260045260246000fd5b50919050565b6000602082840312156111b757600080fd5b815180151581146107d057600080fd5b6000602082840312156111d957600080fd5b5051919050565b634e487b7160e01b600052601160045260246000fd5b60008219821115611209576112096111e0565b500190565b600082821015611220576112206111e0565b50039056fea26469706673582212201b8728580b5e5f66240c0bdabbd225a953cc11bf643f5be05959cf210c1e7c9a64736f6c63430008090033",
  "devdoc": {
    "kind": "dev",
    "methods": {
      "owner()": {
        "details": "Returns the address of the current owner."
      },
      "renounceOwnership()": {
        "details": "Leaves the contract without owner. It will not be possible to call `onlyOwner` functions. Can only be called by the current owner. NOTE: Renouncing ownership will leave the contract without an owner, thereby disabling any functionality that is only available to the owner."
      },
      "transferOwnership(address)": {
        "details": "Transfers ownership of the contract to a new account (`newOwner`). Can only be called by the current owner."
      }
    },
    "version": 1
  },
  "userdoc": {
    "kind": "user",
    "methods": {},
    "version": 1
  },
  "storageLayout": {
    "storage": [
      {
        "astId": 2083,
        "contract": "contracts/tokens/VLP.sol:VLP",
        "label": "_owner",
        "offset": 0,
        "slot": "0",
        "type": "t_address"
      },
      {
        "astId": 27996,
        "contract": "contracts/tokens/VLP.sol:VLP",
        "label": "name",
        "offset": 0,
        "slot": "1",
        "type": "t_string_storage"
      },
      {
        "astId": 27998,
        "contract": "contracts/tokens/VLP.sol:VLP",
        "label": "symbol",
        "offset": 0,
        "slot": "2",
        "type": "t_string_storage"
      },
      {
        "astId": 28004,
        "contract": "contracts/tokens/VLP.sol:VLP",
        "label": "totalSupply",
        "offset": 0,
        "slot": "3",
        "type": "t_uint256"
      },
      {
        "astId": 28008,
        "contract": "contracts/tokens/VLP.sol:VLP",
        "label": "balances",
        "offset": 0,
        "slot": "4",
        "type": "t_mapping(t_address,t_uint256)"
      },
      {
        "astId": 28014,
        "contract": "contracts/tokens/VLP.sol:VLP",
        "label": "allowances",
        "offset": 0,
        "slot": "5",
        "type": "t_mapping(t_address,t_mapping(t_address,t_uint256))"
      },
      {
        "astId": 28728,
        "contract": "contracts/tokens/VLP.sol:VLP",
        "label": "vault",
        "offset": 0,
        "slot": "6",
        "type": "t_contract(IVault)22914"
      },
      {
        "astId": 28731,
        "contract": "contracts/tokens/VLP.sol:VLP",
        "label": "settingsManager",
        "offset": 0,
        "slot": "7",
        "type": "t_contract(ISettingsManager)22864"
      }
    ],
    "types": {
      "t_address": {
        "encoding": "inplace",
        "label": "address",
        "numberOfBytes": "20"
      },
      "t_contract(ISettingsManager)22864": {
        "encoding": "inplace",
        "label": "contract ISettingsManager",
        "numberOfBytes": "20"
      },
      "t_contract(IVault)22914": {
        "encoding": "inplace",
        "label": "contract IVault",
        "numberOfBytes": "20"
      },
      "t_mapping(t_address,t_mapping(t_address,t_uint256))": {
        "encoding": "mapping",
        "key": "t_address",
        "label": "mapping(address => mapping(address => uint256))",
        "numberOfBytes": "32",
        "value": "t_mapping(t_address,t_uint256)"
      },
      "t_mapping(t_address,t_uint256)": {
        "encoding": "mapping",
        "key": "t_address",
        "label": "mapping(address => uint256)",
        "numberOfBytes": "32",
        "value": "t_uint256"
      },
      "t_string_storage": {
        "encoding": "bytes",
        "label": "string",
        "numberOfBytes": "32"
      },
      "t_uint256": {
        "encoding": "inplace",
        "label": "uint256",
        "numberOfBytes": "32"
      }
    }
  }
}